S0580000433A5C55736572735C4A4F5354494E5C446F63756D656E74735CD4D35C6C6561726E5CC6FBB3B5B5E7D7D3BFCEB3CCC9E8BCC62DB3C2BEF5CFFE5C43414E746F6E6778696E5C62696E5C50726F6A6563742E6162737D
S123C000CF2100C6055B134A8008FE4A8000FE0000C015C04B000000001B911A8B341A8C50
S123C020341A8D341A8E341A88B7544A8099FE1B88046106D600C8015B001B8F0B87D7B731
S110C040C62707184446560436F93D000093
S105FFB2C01970
S105FFFEC0003D
S224FE80004A8031FE10EF20FEFEC011FDC00F270E35ED31EC3169700434FB310326F2FEC0F1
S224FE802013EC31270BED31180A30700434F920F10A1C0140011F014101FBCCC7817B014123
S224FE80407A0142C63A7B014379014BC6277B0150C6E07B0151790152790153C6277B015856
S224FE8060C6E07B015979015A79015B79015479015579015679015779015C79015D79015E16
S224FE808079015F1D0140011E014101FBCC01087B01407A01457901470A6CAA1E01440105AE
S224FE80A0C602068132FC0162FE01606C846E820F830835EE8DC6016B00EE84EC824918469B
S224FE80C0C403873BC60334EE86ED8816C03D18841FFC3AEDF0116C4218AA806E40C6011BBC
S224FE80E0820F85011EC7201BEE8D6900EE82C615ED8416C03DED8F6E406C420E831003C651
S224FE81000121C7EE8B6B002724F6016CC40FEE896B00C720128737B745C3016418AB81B756
S219FE812046E6406B003352EE89E10025E81C014401C71B860AB2
S9030000FC
